:1000000045C0000060C000005EC000005CC0000091
:100010005AC0000058C0000056C0000054C0000084
:1000200052C0000050C000004EC000004CC0000094
:100030004AC0000048C0000046C0000054C0000094
:1000400042C0000040C000003EC000003CC00000B4
:100050003AC0000038C0000036C0000034C00000C4
:1000600032C0000030C000002EC000002CC00000D4
:100070002AC0000028C0000026C0000024C00000E4
:1000800022C0000020C000001EC0000011241FBEBE
:10009000CFEFD0E1DEBFCDBF11E0A0E0B1E0E6E1FF
:1000A000F3E000E00BBF02C007900D92A433B1074C
:1000B000D9F721E0A4E3B1E001C01D92AB33B20750
:1000C000E1F707D126C19CCF90E0FC01EC5CFE4F2C
:1000D0002081283011F02F5F01C020E0FC01EC5C92
:1000E000FE4F208308951F920F920FB60F92112496
:1000F0000BB60F922F933F934F935F936F937F9322
:100100008F939F93AF93BF93EF93FF9340913901E8
:1001100050913A019A01ADECBCECECD096958795E4
:10012000969587959C01220F331F220F331F820F54
:10013000931F4817590719F480E0C6DF52C09A018F
:1001400036952795ABE7B4E1D5D09695879562E3D0
:10015000689F9001699F300D11244217530719F4CD
:1001600081E0B2DF3EC09A013695279536952795F6
:10017000A5ECB0E2BFD0929582958F7089279F70D1
:10018000892764EF71E0869F9001879F300D969FCD
:10019000300D11244217530719F482E095DF21C076
:1001A0009A01369527953695279536952795A7E395
:1001B000BAE1A0D00024880F991F001C880F991F56
:1001C000001C892F902D68E873E1869F9001879F1E
:1001D000300D969F300D11244217530711F483E020
:1001E00073DFE0913901F0913A01E370FF27E85F96
:1001F000FE4F808182BB8091390190913A018370DA
:100200009927FC01EE0FFF1FE050FF4F0190F08196
:10021000E02DDC01AC5CBE4F8C91E80FF11D8081BC
:1002200085BB4091390150913A0140FD04C081E005
:100230008093380135C09A01ADECBCEC5BD096954B
:100240008795969587959C01220F331F220F331FA8
:10025000820F931F4817590721F482E080933801D9
:100260001FC09A013695279536952795369527957F
:10027000AFE4BBE13FD09695879596958795969587
:10028000879568E572E0869F9001879F300D969F65
:10029000300D11244217530719F483E0809338017D
:1002A0004F5F5F4F50933A0140933901FF91EF91B7
:1002B000BF91AF919F918F917F916F915F914F917E
:1002C0003F912F910F900BBE0F900FBE0F901F907C
:1002D00018958FEF84BB80EC81BB87B7826087BFA6
:1002E0008FE181BF83B7856083BF83B7886083BF99
:1002F0007894FFCFA29FB001B39FC001A39F700D60
:10030000811D1124911DB29F700D811D1124911D1D
:060310000895F894FFCFF0
:100316002A01200116010C01004080C0C0F9A4B0DA
:10032600999282F88090C0F9A4B0999282F8809050
:10033600C0F9A4B0999282F88090C0F9A4B09992BD
:0403460082F8809029
:00000001FF
