:1000000045C0000053C0000051C000004FC00000B8
:100010004DC000004BC0000049C0000047C00000B8
:1000200045C0000043C0000041C000003FC00000C8
:100030003DC000003BC0000039C0000038C00000D7
:1000400035C0000033C0000031C000002FC00000E8
:100050002DC000002BC0000029C0000027C00000F8
:1000600025C0000023C0000021C000001FC0000008
:100070001DC000001BC0000019C0000017C0000018
:1000800015C0000013C0000011C0000011241FBEE5
:10009000CFEFD0E1DEBFCDBF21E0A0E0B1E001C0F5
:1000A0001D92A230B207E1F729D05BC0A9CF1F9201
:1000B0000F920FB60F9211248F93809101018F5FE1
:1000C000809301018F910F900FBE0F901F90189594
:1000D00080910101843639F48FEF85BB85B3880F99
:1000E00085BB10920101089580910101843629F4A5
:1000F00015BA85B385BB10920101089580EC8ABBC7
:100100008BBB8FEF85BB84BB83B7886083BF83B70E
:10011000876083BF87B7826087BF8DE981BF78948E
:10012000C0E049B389B3827090E029B3207230E017
:1001300040FF05C0892B29F0232B29F005C0C1E021
:1001400003C0C2E001C0C6E0C13021F481E0809369
:100150000001BEDFC23029F782E080930001C4DFD6
:06016000E0CFF894FFCF90
:00000001FF
