:1000000045C0000060C000005EC000005CC0000091
:100010005AC0000058C0000056C0000054C0000084
:1000200052C0000050C000004EC000004CC0000094
:100030004AC0000048C0000046C0000045C00000A3
:1000400042C0000040C000003EC000003CC00000B4
:100050003AC0000038C0000036C0000034C00000C4
:1000600032C0000030C000002EC000002CC00000D4
:100070002AC0000028C0000026C0000024C00000E4
:1000800022C0000020C000001EC0000011241FBEBE
:10009000CFEFD0E1DEBFCDBF11E0A0E0B1E0E6EFF1
:1000A000F2E000E00BBF02C007900D92AC37B10741
:1000B000D9F721E0ACE7B1E001C01D92A338B20747
:1000C000E1F7F7D016C19CCF1F920F920FB60F9297
:1000D00011240BB60F922F933F934F935F936F931F
:1000E0007F938F939F93AF93BF93EF93FF93409131
:1000F0008101509182019A01ADECBCECEBD0969558
:100100008795969587959C01220F331F220F331FE9
:10011000820F931F9A01281B390BECE7F1E0208333
:100120009A0136952795ABE7B4E1D4D0969587959B
:1001300062E3689F9001699F300D1124CA01821B00
:10014000930B81839A013695279536952795A5ECD3
:10015000B0E2C0D0929582958F7089279F708927D1
:1001600064EF71E0869F9001879F300D969F300D60
:100170001124CA01821B930B82839A01369527951D
:100180003695279536952795A7E3BAE1A3D00024A5
:10019000880F991F001C880F991F001C892F902D14
:1001A00068E873E1869F9001879F300D969F300D20
:1001B0001124CA01821B930B838343705527FA01D4
:1001C000E05BFE4F808182BB809181019091820132
:1001D00083709927FC01E458FE4F2081FC01EE0F4B
:1001E000FF1F880F991F880F991F880F991FE80F0D
:1001F000F91FE20FF11DEE0FFF1FE050FF4F80814E
:1002000085BB409181015091820140FD04C081E095
:100210008093800135C09A01ADECBCEC5BD0969523
:100220008795969587959C01220F331F220F331FC8
:10023000820F931F4817590721F482E080938001B1
:100240001FC09A013695279536952795369527959F
:10025000AFE4BBE13FD096958795969587959695A7
:10026000879568E572E0869F9001879F300D969F85
:10027000300D11244217530719F083E08093800159
:100280004F5F5F4F5093820140938101FF91EF9147
:10029000BF91AF919F918F917F916F915F914F919E
:1002A0003F912F910F900BBE0F900FBE0F901F909C
:1002B00018958FEF84BB80EC81BB87B7826087BFC6
:1002C0008FE181BF83B7876083BF83B7886083BFB7
:1002D0007894FFCFA29FB001B39FC001A39F700D80
:1002E000811D1124911DB29F700D811D1124911D3E
:0602F0000895F894FFCF11
:1002F600720168015E015401000000000000000068
:1003060000000000000000000000000000000000E7
:1003160000000000000000000000000000000000D7
:1003260000000000000000000000000000000000C7
:1003360000000000000000000000000000000000B7
:10034600004080C0C0F9A4B0999282F88090C0F9AC
:10035600A4B0999282F88090C0F9A4B0999282F8DC
:0C0366008090C0F9A4B0999282F88090B9
:00000001FF
